:1000260068616C6C6F310068616C6C6F320068617E
:050036006C6C6F33004B
:08003B008F1C120CCCAF1C223B
:100C7700750903E4F508FB7A0079087F031206C5B6
:100C8700750903E4F508FB7A0079087F011206C5A8
:100C97007509017508037B007A0079087F0202064F
:010CA700C587
:100C2900750840750901E4750D80750C25F50BF5FE
:100C39000A750F01F510751101F512F513FB7A000C
:100C490079087F011203A2750840750902E4750D40
:100C590080750C25F50BF50A750F01F51075110155
:0E0C6900F512F513FB7A0079087F020203A250
:10000300E4F51DE51DC3952650147400251DF582E6
:0E001300E43400F583E0FF120CA8051D80E523
:0100210022BC
:100CEF00E4F508E508C3952D501474802508F582A6
:0E0CFF00E43400F583E0FF120CCC050880E51C
:010D0D0022C3
:100BD700120C77120C29D2AF7F0A120D34E52ED3EF
:100BE700940040F47BFF7A0079261200A8D52EE8FE
:100BF7007BFF7A00792D1200A8E52DD39400401DC4
:100C07007BFF7A0079341200A8120CEF900080E085
:100C1700FFB40104D2A08005EF7002C2A0E4F52D55
:020C270080B695
:0F0D34007D607C09ED1D70011C144C70F7DFF120
:010D4300228D
:1006C500EFD3940740037F0122120919FED3940347
:1006D50040037F0222EF7041EE700B90000112097A
:1006E50032F452935294120919B4010B900001127D
:1006F50009324293F45294120919FEB4020A900089
:100705000112093242934294EEB4030D9000011296
:100715000932FEF45293EE4294EF640170431209DC
:1007250019FE700B900001120932F452915292EEAB
:10073500B4010B9000011209324291F45292120950
:1007450019B4020A9000011209324291429212092B
:1007550019B4030D900001120932FEF45291EE42D4
:1007650092EF64027043120919FE700B900001129A
:100775000932F452955296EEB4010B90000112091C
:10078500324295F45296120919B4020A90000112E8
:10079500093242954296120919B4030D90000112CF
:1007A5000932FEF45295EE4296EF64037043120946
:1007B50019FE700B900001120932F452B152B2EEDB
:1007C500B4010B90000112093242B1F452B2120980
:1007D50019B4020A90000112093242B142B212095B
:1007E50019B4030D900001120932FEF452B1EE4224
:1007F500B2EF64047043120919FE700B90000112E8
:100805000932F452B352B4EEB4010B90000112094F
:100815003242B3F452B4120919B4020A900001121B
:10082500093242B342B4120919B4030D9000011202
:100835000932FEF452B3EE42B4EF64057043120977
:1008450019FE700B900001120932F452C952CAEE1A
:10085500B4010B90000112093242C9F452CA1209BF
:1008650019B4020A90000112093242C942CA12099A
:1008750019B4030D900001120932FEF452C9EE427B
:10088500CAEF64067043120919FE700B900001123D
:100895000932F452CB52CCEEB4010B90000112098F
:1008A5003242CBF452CC120919B4020A900001125B
:1008B500093242CB42CC120919B4030D9000011242
:1008C5000932FEF452CBEE42CCEF640770431209B5
:1008D50019FF700B900001120932F452E152E2EF58
:1008E500B4010B90000112093242E1F452E21209FF
:1008F50019B4020A90000112093242E142E21209DA
:1009050019B4030D900001120932FFF452E1EF42D0
:04091500E27F00225B
:0803A2008F148B158A168917D0
:1003AA00E51464016003020571752201F523F52441
:1003BA00F525F526F527F528F51874002518F58290
:1003CA00E43401F583E4F00518E518B480ECE4F5AB
:1003DA001874002518F582E43400F583E4F0051852
:1003EA00E518B480ECAB15AA16A91790000A1209F1
:1003FA0032FED3940340037F0222EE700553B7EF17
:10040A00C2BC90000A120932B4010553B7EFD2BC3C
:10041A0090000A120932FFB4020543B710C2BCEFBA
:10042A00B4030543B710D2BC120919D394C04003D0
:10043A007F0222120919FFE598543F4FF598EF649D
:10044A00C06008EF64406003020506900002120AC9
:10045A00517F807E8D7D5B7C0012099B8F1C8E1BD9
:10046A008D1A8C19E4FFFE7D01FCAB1CAA1BA91A8C
:10047A00A819C3120A2D40037F0222C3E4951CF572
:10048A001CE4951BF51B7401951AF51AE49519F5E8
:10049A0019AB15AA16A917900001120932FB6401BB
:1004AA00702CC28E538EFE5389BF5389CF438E4020
:1004BA00AF1CAE1BAD1AAC197808120A3E8F8D8597
:1004CA001C8BC2AB5389BF538FFDD28E8062EB6403
:1004DA00027026538EEF438E01538EF7438E04AF7C
:1004EA001CAE1BAD1AAC197808120A3E8FD6851CB1
:1004FA00D753AFFB438E1080377F0222AB15AA1663
:10050A00A917120919FF7013900008120932B401D1
:10051A0005438E20801A538EDF8015EFB480119028
:10052A000008120932B40105438780800353877F8C
:10053A00AB15AA16A917900009120932B40104D200
:10054A00AC8002C2AC900007120932B40104D29CFA
:10055A008002C29C90000B12093254C0FFE5A254DB
:10056A003F4FF5A27F0022E514640260030206C22F
:10057A00752902F52AF52BF52CF52DF52EF52FF513
:10058A001874802518F582E43401F583E4F005181F
:10059A00E518B480ECE4F51874802518F582E43483
:1005AA0000F583E4F00518E518B480ECAB15AA163B
:1005BA00A917120919FF64C06008EF6440600302BA
:1005CA00068490000A120932FED3940340037F0284
:1005DA0022EE700653B6FE53B5FE90000A12093297
:1005EA00B4010653B6FE43B50190000A120932FF60
:1005FA00B4020643B60153B5FEEFB4030643B6018F
:10060A0043B501120919B4C005439A808003539A6D
:10061A007F900002120A517F807E8D7D5B7C0012E2
:10062A00099B8F1C8E1B8D1A8C19E4FFFE7D01FC21
:10063A00AB1CAA1BA91AA819C3120A2D40037F02D0
:10064A0022C3E4951CF51CE4951BF51B7401951A4D
:10065A00F51AE49519F519538EEF538EF7438E0464
:10066A00AF1CAE1BAD1AAC197808120A3E8FD6859C
:10067A001CD753AFFB438E1080037F0222AB15AA0F
:10068A0016A917900009120932B4010543AF018077
:10069A000353AFFE900007120932B40105439A10C2
:1006AA008003539AEF90000B1209325401FFE5BA06
:0A06BA0054FE4FF5BA7F00227F02C4
:0106C4002213
:100CCC0074002524F582E43401F583EFF00524E566
:100CDC0024C394804003E4F524E5257005752501B3
:030CEC00D2992278
:100D0E00120919FF600C120CCC740129F9E43AFA9D
:030D1E0080EE2242
:03002300020B6E5F
:100B6E00C0E0C083C082C0D075D000C007309824CA
:100B7E00C298E528701EE526C394804003752600B2
:100B8E00AF26052674002FF582E43400F583E5992F
:100B9E00F0752705309927C299E5236524601C74EA
:100BAE00002523F582E43401F583E0F5990523E56C
:100BBE0023C3948040087523008003752500D00759
:090BCE00D0D0D082D083D0E032F7
:100CA8007480252BF582E43401F583EFF0052BE5FC
:100CB8002BC394804003E4F52BE52C7006752C01BA
:040CC800439A022227
:100D2100120919FF600C120CA8740129F9E43AFAAE
:030D310080EE222F
:03004300020AFFAF
:100AFF00C0E0C083C082C0D075D000C007E59A3077
:100B0F00E025539AFEE52F701EE52DC39480400318
:100B1F00752D00AF2D052D74802FF582E43400F56F
:100B2F0083E59BF0752E05E59A30E128539AFDE594
:100B3F002A652B601C7480252AF582E43401F58325
:100B4F00E0F59B052AE52AC394804008752A0080AA
:0F0B5F0003752C00D007D0D0D082D083D0E032E5
:03000000020D44AA
:0C0D4400787FE4F6D8FD75812F020BD7F4
:10091900BB010689828A83E0225002E722BBFE02DC
:09092900E32289828A83E493220F
:10093200BB010CE58229F582E5833AF583E022507A
:1009420006E92582F8E622BBFE06E92582F8E222C4
:0D095200E58229F582E5833AF583E49322DE
:10095F0075F008758200EF2FFFEE33FECD33CDCC4F
:10096F0033CCC58233C5829BED9AEC99E5829840D2
:10097F000CF582EE9BFEED9AFDEC99FC0FD5F0D6AF
:10098F00E4CEFBE4CDFAE4CCF9A88222B800C1B9D9
:10099F000059BA002DEC8BF084CFCECDFCE5F0CB17
:1009AF00F97818EF2FFFEE33FEED33FDEC33FCEB50
:1009BF0033FB10D703994004EB99FB0FD8E5E4F90B
:1009CF00FA227818EF2FFFEE33FEED33FDEC33FCF8
:1009DF00C933C910D7059BE99A4007EC9BFCE99AEC
:1009EF00F90FD8E0E4C9FAE4CCFB2275F010EF2F31
:1009FF00FFEE33FEED33FDCC33CCC833C810D70731
:100A0F009BEC9AE899400AED9BFDEC9AFCE899F86B
:0E0A1F000FD5F0DAE4CDFBE4CCFAE4C8F922FE
:100A2D00EB9FF5F0EA9E42F0E99D42F0E89C45F01F
:010A3D002296
:100A3E00E8600FECC313FCED13FDEE13FEEF13FF96
:030A4E00D8F122BA
:100A5100BB010DE58229F582E5833AF583020AA0FF
:100A61005007E92582F8020A93BBFE07E92582F8BF
:100A7100020AACE58229F582E5833AF583020AB9D7
:10004600E517240BF8E60517227808300702780B27
:10005600E475F001120AC90209192000EB7F2ED2BD
:10006600008018EF540F2490D43440D4FF30040B92
:10007600EF24BFB41A0050032461FFE5186002158F
:1000860018051BE51B7002051A30070D7808E47584
:10009600F001120AC9EF020A8102003B7403D2077B
:1000A6008003E4C207F5178B088A09890AE4F51864
:1000B600F51AF51BE51860077F2012008180F5759B
:1000C60019FFC201C200C202C203C205C206C208AB
:1000D60012004FFF700D3007057F00120092AF1B14
:1000E600AE1A22B4255FC2D5C20412004FFF24D037
:1000F600B40A00501A75F00A781830D50508B6FF0C
:100106000106C6A426F620D5047002D20380D9249F
:10011600CFB41A00EF5004C2E5D204020292D20113
:1001260080C6D20080C0D20280BCD2D580BAD205A9
:1001360080B47F201200812002077401B5180040A8
:10014600F1120046FF1200810200BAD208D20680E0
:1001560095120046FB120046FA120046F94A4B7009
:100166000679637A037BFF20022EE518602A7E005B
:100176008E8275830012093260060EEE651970F0E4
:10018600C2D5EBC0E0EAC0E0E9C0E0EE1202D9D089
:10019600E0F9D0E0FAD0E0FB120919FF60AAEBC043
:1001A600E0EAC0E0E9C0E0120081D0E02401F9D025
:1001B600E03400FAD0E0FBE5190460DCD519D980FB
:1001C600877BFF7A0279D5D202809C7910800279EA
:1001D60008C206C2088008D2D5790A8004790AC204
:1001E600D5E519047002F519E4FAFDFEFF12004682
:1001F600FC7B08200113120046FD7B1030000A121A
:100206000046FE120046FF7B20EC3382D592D55085
:1002160013C3E43000069FFFE49EFEE42001039D25
:10022600FDE49CFCE4CBF8C201EC700CCFCECDCC47
:10023600E824F8F870F38017C3EF33FFEE33FEEDD2
:1002460033FDEC33FCEB33FB994002FB0FD8E9EBB3
:10025600300105F8D0E0C448B201C0E00AEC4D4ECA
:100266004F78207B0070C2EAB5190040BCC0E0128E
:1002760002DBD0F0D0E0200104C4C0E0C4B201C06B
:10028600F012006AD0F0D5F0EB0200BA120AD901DA
:10029600575301D15801284C01244201D54F01DDA5
:0F02A6004401DD49013D4301E35501C74601C74E
:1002B5004501C747038350012C2D01302E01532BD7
:1002C500013423015120036C2A00EC480000014B46
:1002D5003F3F3F00790AA2D5200314300509B91024
:1002E500020404B9080104A2D52006025001042025
:1002F50002689202B518005034C0E07F203003191F
:100305007F30A20272067205500F120332C202C27A
:1003150006C205C2087F30800F300503E9C0E01230
:100325000081300503D0E0F9D0E0B518CC300517D1
:100335007F30B9100C1200817F583004077F788018
:1003450003B908031200813002057F2D0200817F69
:10035500202008F87F2B2006F322920280CF286EFA
:10036500756C6C2900D2011200463001F8C2017883
:100375001830D50108F60200EC2D504349581200FB
:10038500462403B405004001E490037E93120072F5
:0D039500743A120072D2037518040201D1EF
:100A8100BB010689828A83F0225002F722BBFE0154
:020A9100F3224E
:0D0A9300E6FB08E6F908E6FA08E6CBF822D3
:0C0AA000E0F8A3E0F9A3E0FAA3E0FB22D9
:0D0AAC00E2FB08E2F908E2FA08E2CBF822CA
:100AB900E493F8740193F9740293FA740393FB2293
:100AC900FAE6FB0808E6F925F0F618E6CA3AF6222E
:100AD900D083D082F8E4937012740193700DA3A3AC
:100AE90093F8740193F5828883E4737402936860C0
:060AF900EFA3A3A380DFC0
:00000001FF
