:10000300750903E4F508FB7A0079087F0312036995
:10001300750903E4F508FB7A0079087F0102036997
:10083300750840750901750D00750CC2750B0175BE
:100843000A00750F01E4F510751101F512F513FB9C
:100853007A0079087F01120046750840750902E4A1
:10086300750D80750C25F50BF50A750F01F51075DF
:100873001101F512F513FB7A0079087F0202004695
:10090700E4F508E508C39521501474002508F5821D
:0E091700E43400F583E0FF1208C0050880E517
:0109250022AF
:10092600E4F508E508C39528501474802508F58277
:0E093600E43400F583E0FF1208E4050880E5D4
:010944002290
:10088300120003120833D2AF7F0A120958E522D3AC
:1008930094004010D5220DE521D3940040031209A2
:1008A30007E4F521E529D3940040DDD529DAE528CD
:0D08B300D394004003120926E4F52880CB01
:0F0958007D607C09ED1D70011C144C70F7DFF100
:01096700226D
:10036900EFD3940740037F01221205BDFED3940306
:1003790040037F0222EF7041EE700B9000011205DD
:10038900D6F4529352941205BDB4010B9000011298
:1003990005D64293F452941205BDFEB4020A9000A8
:1003A900011205D642934294EEB4030D9000011256
:1003B90005D6FEF45293EE4294EF640170431205A0
:1003C900BDFE700B9000011205D6F452915292EEC7
:1003D900B4010B9000011205D64291F45292120514
:1003E900BDB4020A9000011205D64291429212054B
:1003F900BDB4030D9000011205D6FEF45291EE42F0
:1004090092EF640270431205BDFE700B9000011259
:1004190005D6F452955296EEB4010B9000011205DF
:10042900D64295F452961205BDB4020A9000011203
:1004390005D6429542961205BDB4030D90000112EE
:1004490005D6FEF45295EE4296EF64037043120509
:10045900BDFE700B9000011205D6F452B152B2EEF6
:10046900B4010B9000011205D642B1F452B2120543
:10047900BDB4020A9000011205D642B142B212057A
:10048900BDB4030D9000011205D6FEF452B1EE423F
:10049900B2EF640470431205BDFE700B90000112A7
:1004A90005D6F452B352B4EEB4010B900001120513
:1004B900D642B3F452B41205BDB4020A9000011237
:1004C90005D642B342B41205BDB4030D9000011222
:1004D90005D6FEF452B3EE42B4EF6405704312053B
:1004E900BDFE700B9000011205D6F452C952CAEE36
:1004F900B4010B9000011205D642C9F452CA120583
:10050900BDB4020A9000011205D642C942CA1205B9
:10051900BDB4030D9000011205D6FEF452C9EE4296
:10052900CAEF640670431205BDFE700B90000112FC
:1005390005D6F452CB52CCEEB4010B900001120552
:10054900D642CBF452CC1205BDB4020A9000011276
:1005590005D642CB42CC1205BDB4030D9000011261
:1005690005D6FEF452CBEE42CCEF64077043120578
:10057900BDFF700B9000011205D6F452E152E2EF73
:10058900B4010B9000011205D642E1F452E21205C2
:10059900BDB4020A9000011205D642E142E21205F9
:1005A900BDB4030D9000011205D6FFF452E1EF42EC
:0405B900E27F0022BB
:080046008F148B158A1689172F
:10004E00E51464016003020215751D01F51EF51F0E
:10005E00F520F521F522F523F51874002518F58203
:10006E00E43401F583E4F00518E518B480ECE4F50A
:10007E001874002518F582E43400F583E4F00518B1
:10008E00E518B480ECAB15AA16A91790000A120554
:10009E00D6FED3940340037F0222EE700553B7EFD2
:1000AE00C2BC90000A1205D6B4010553B7EFD2BCFC
:1000BE0090000A1205D6FFB4020543B710C2BCEF7A
:1000CE00B4030543B710D2BC1205BDD394C0400390
:1000DE007F02221205BDFFE598543F4FF598EF645D
:1000EE00C06008EF644060030201AA90000212068D
:1000FE00F57F807E8D7D5B7C0012063F8F1C8E1BF4
:10010E008D1A8C19E4FFFE7D01FCAB1CAA1BA91AEB
:10011E00A819C31206D140037F0222C3E4951CF531
:10012E001CE4951BF51B7401951AF51AE49519F547
:10013E0019AB15AA16A9179000011205D6FB64017A
:10014E00702CC28E538EFE5389BF5389CF438E407F
:10015E00AF1CAE1BAD1AAC1978081206E28F8D8556
:10016E001C8BC2AB5389BF538FFDD28E8062EB6462
:10017E00027026538EEF438E01538EF7438E04AFDB
:10018E001CAE1BAD1AAC1978081206E28FD6851C70
:10019E00D753AFFB438E1080377F0222AB15AA16C2
:1001AE00A9171205BDFF70139000081205D6B401F1
:1001BE0005438E20801A538EDF8015EFB480119088
:1001CE0000081205D6B40105438780800353877F4C
:1001DE00AB15AA16A9179000091205D6B40104D2C0
:1001EE00AC8002C2AC9000071205D6B40104D29CBA
:1001FE008002C29C90000B1205D654C0FFE5A2549B
:10020E003F4FF5A27F0022E51464026003020366ED
:10021E00752402F525F526F527F528F529F52AF595
:10022E001874802518F582E43401F583E4F005187E
:10023E00E518B480ECE4F51874802518F582E434E2
:10024E0000F583E4F00518E518B480ECAB15AA169A
:10025E00A9171205BDFF64C06008EF644060030279
:10026E00032890000A1205D6FED3940340037F02A2
:10027E0022EE700653B6FE53B5FE90000A1205D656
:10028E00B4010653B6FE43B50190000A1205D6FF1F
:10029E00B4020643B60153B5FEEFB4030643B601EE
:1002AE0043B5011205BDB4C005439A808003539A2D
:1002BE007F9000021206F57F807E8D7D5B7C0012A2
:1002CE00063F8F1C8E1B8D1A8C19E4FFFE7D01FCE0
:1002DE00AB1CAA1BA91AA819C31206D140037F0290
:1002EE0022C3E4951CF51CE4951BF51B7401951AAD
:1002FE00F51AE49519F519538EEF538EF7438E04C4
:10030E00AF1CAE1BAD1AAC1978081206E28FD6855B
:10031E001CD753AFFB438E1080037F0222AB15AA6E
:10032E0016A9179000091205D6B4010543AF018036
:10033E000353AFFE9000071205D6B40105439A1081
:10034E008003539AEF90000B1205D65401FFE5BAC5
:0A035E0054FE4FF5BA7F00227F0223
:010368002272
:1008E4007400251FF582E43401F583EFF0051FE55C
:1008F4001FC394804003E4F51FE5207005752001B3
:03090400D2992263
:100026001205BDFF600C1208E4740129F9E43AFADE
:0300360080EE2237
:030023000207CA07
:1007CA00C0E0C083C082C0D075D000C00730982472
:1007DA00C298E523701EE521C39480400375210069
:1007EA00AF21052174002FF582E43400F583E599E1
:1007FA00F0752205309927C299E51E651F601C74A1
:10080A0000251EF582E43401F583E0F599051EE51D
:10081A001EC394804008751E008003752000D0070F
:09082A00D0D0D082D083D0E0329E
:1008C00074802526F582E43401F583EFF00526E5F2
:1008D00026C394804003E4F526E5277006752701BA
:0408E000439A022213
:100945001205BDFF600C1208C0740129F9E43AFADA
:0309550080EE220F
:0300430002075B56
:10075B00C0E0C083C082C0D075D000C007E59A301E
:10076B00E025539AFEE52A701EE528C394804003CA
:10077B00752800AF28052874802FF582E43400F526
:10078B0083E59BF0752905E59A30E128539AFDE541
:10079B00256526601C74802525F582E43401F583DC
:1007AB00E0F59B0525E525C3948040087525008061
:0F07BB0003752700D007D0D0D082D083D0E03292
:030000000209688A
:0C096800787FE4F6D8FD75812A02088330
:1005BD00BB010689828A83E0225002E722BBFE023C
:0905CD00E32289828A83E493226F
:1005D600BB010CE58229F582E5833AF583E02250DA
:1005E60006E92582F8E622BBFE06E92582F8E22224
:0D05F600E58229F582E5833AF583E493223E
:1006030075F008758200EF2FFFEE33FECD33CDCCAE
:1006130033CCC58233C5829BED9AEC99E582984031
:100623000CF582EE9BFEED9AFDEC99FC0FD5F0D60E
:10063300E4CEFBE4CDFAE4CCF9A88222B800C1B938
:100643000059BA002DEC8BF084CFCECDFCE5F0CB76
:10065300F97818EF2FFFEE33FEED33FDEC33FCEBAF
:1006630033FB10D703994004EB99FB0FD8E5E4F96A
:10067300FA227818EF2FFFEE33FEED33FDEC33FC57
:10068300C933C910D7059BE99A4007EC9BFCE99A4B
:10069300F90FD8E0E4C9FAE4CCFB2275F010EF2F90
:1006A300FFEE33FEED33FDCC33CCC833C810D70790
:1006B3009BEC9AE899400AED9BFDEC9AFCE899F8CB
:0E06C3000FD5F0DAE4CDFBE4CCFAE4C8F9225E
:1006D100EB9FF5F0EA9E42F0E99D42F0E89C45F07F
:0106E10022F6
:1006E200E8600FECC313FCED13FDEE13FEEF13FFF6
:0306F200D8F1221A
:1006F500BB010DE58229F582E5833AF583020732D0
:100705005007E92582F8020725BBFE07E92582F88F
:1007150002073EE58229F582E5833AF58302074B18
:0D072500E6FB08E6F908E6FA08E6CBF82244
:0C073200E0F8A3E0F9A3E0FAA3E0FB224A
:0D073E00E2FB08E2F908E2FA08E2CBF8223B
:10074B00E493F8740193F9740293FA740393FB2204
:00000001FF
